{
  "_format": "hh-sol-artifact-1",
  "contractName": "Gambling",
  "sourceName": "contracts/Gambling.sol",
  "abi": [
    {
      "inputs": [],
      "stateMutability": "nonpayable",
      "type": "constructor"
    },
    {
      "anonymous": false,
      "inputs": [
        {
          "indexed": false,
          "internalType": "address",
          "name": "bettor",
          "type": "address"
        },
        {
          "indexed": false,
          "internalType": "uint256",
          "name": "amount",
          "type": "uint256"
        },
        {
          "indexed": false,
          "internalType": "uint256",
          "name": "numberSelected",
          "type": "uint256"
        }
      ],
      "name": "BetPlaced",
      "type": "event"
    },
    {
      "anonymous": false,
      "inputs": [
        {
          "indexed": false,
          "internalType": "uint256",
          "name": "winningNumber",
          "type": "uint256"
        }
      ],
      "name": "BettingEnded",
      "type": "event"
    },
    {
      "anonymous": false,
      "inputs": [],
      "name": "BettingStarted",
      "type": "event"
    },
    {
      "anonymous": false,
      "inputs": [
        {
          "indexed": false,
          "internalType": "address",
          "name": "winner",
          "type": "address"
        },
        {
          "indexed": false,
          "internalType": "uint256",
          "name": "amount",
          "type": "uint256"
        }
      ],
      "name": "WinningsWithdrawn",
      "type": "event"
    },
    {
      "inputs": [],
      "name": "bettingActive",
      "outputs": [
        {
          "internalType": "bool",
          "name": "",
          "type": "bool"
        }
      ],
      "stateMutability": "view",
      "type": "function"
    },
    {
      "inputs": [
        {
          "internalType": "address",
          "name": "",
          "type": "address"
        }
      ],
      "name": "bettorToAmount",
      "outputs": [
        {
          "internalType": "uint256",
          "name": "",
          "type": "uint256"
        }
      ],
      "stateMutability": "view",
      "type": "function"
    },
    {
      "inputs": [],
      "name": "endBetting",
      "outputs": [],
      "stateMutability": "nonpayable",
      "type": "function"
    },
    {
      "inputs": [],
      "name": "getBalance",
      "outputs": [
        {
          "internalType": "uint256",
          "name": "",
          "type": "uint256"
        }
      ],
      "stateMutability": "view",
      "type": "function"
    },
    {
      "inputs": [],
      "name": "houseEarnings",
      "outputs": [
        {
          "internalType": "uint256",
          "name": "",
          "type": "uint256"
        }
      ],
      "stateMutability": "view",
      "type": "function"
    },
    {
      "inputs": [
        {
          "internalType": "address",
          "name": "bettor",
          "type": "address"
        }
      ],
      "name": "isWinner",
      "outputs": [
        {
          "internalType": "bool",
          "name": "",
          "type": "bool"
        }
      ],
      "stateMutability": "view",
      "type": "function"
    },
    {
      "inputs": [
        {
          "internalType": "uint256",
          "name": "",
          "type": "uint256"
        },
        {
          "internalType": "uint256",
          "name": "",
          "type": "uint256"
        }
      ],
      "name": "numberToBettors",
      "outputs": [
        {
          "internalType": "address",
          "name": "",
          "type": "address"
        }
      ],
      "stateMutability": "view",
      "type": "function"
    },
    {
      "inputs": [
        {
          "internalType": "uint256",
          "name": "",
          "type": "uint256"
        }
      ],
      "name": "numberToTotalBet",
      "outputs": [
        {
          "internalType": "uint256",
          "name": "",
          "type": "uint256"
        }
      ],
      "stateMutability": "view",
      "type": "function"
    },
    {
      "inputs": [],
      "name": "owner",
      "outputs": [
        {
          "internalType": "address",
          "name": "",
          "type": "address"
        }
      ],
      "stateMutability": "view",
      "type": "function"
    },
    {
      "inputs": [
        {
          "internalType": "uint256",
          "name": "number",
          "type": "uint256"
        }
      ],
      "name": "placeBet",
      "outputs": [],
      "stateMutability": "payable",
      "type": "function"
    },
    {
      "inputs": [],
      "name": "startBetting",
      "outputs": [],
      "stateMutability": "nonpayable",
      "type": "function"
    },
    {
      "inputs": [],
      "name": "winningNumber",
      "outputs": [
        {
          "internalType": "uint256",
          "name": "",
          "type": "uint256"
        }
      ],
      "stateMutability": "view",
      "type": "function"
    },
    {
      "inputs": [],
      "name": "withdrawHouseEarnings",
      "outputs": [],
      "stateMutability": "nonpayable",
      "type": "function"
    },
    {
      "inputs": [],
      "name": "withdrawWinnings",
      "outputs": [],
      "stateMutability": "nonpayable",
      "type": "function"
    }
  ],
  "bytecode": "0x608060405260008060146101000a81548160ff02191690831515021790555034801561002a57600080fd5b50336000806101000a81548173ffffffffffffffffffffffffffffffffffffffff021916908373ffffffffffffffffffffffffffffffffffffffff1602179055506115328061007a6000396000f3fe6080604052600436106100dd5760003560e01c80638df476de1161007f578063a92219c311610059578063a92219c31461028f578063cc42e83a146102cc578063cfe30939146102e3578063d187162f1461030e576100dd565b80638df476de146101ea5780639d9ca28d14610227578063a5ee33cf14610264576100dd565b806341883b78116100bb57806341883b78146101665780634664611e1461017d578063826f57a1146101a85780638da5cb5b146101bf576100dd565b806310fe7c48146100e257806312065fe0146100fe5780631941184214610129575b600080fd5b6100fc60048036038101906100f79190610dcf565b610325565b005b34801561010a57600080fd5b50610113610552565b6040516101209190611297565b60405180910390f35b34801561013557600080fd5b50610150600480360381019061014b9190610dcf565b61055a565b60405161015d9190611297565b60405180910390f35b34801561017257600080fd5b5061017b610572565b005b34801561018957600080fd5b50610192610673565b60405161019f9190611297565b60405180910390f35b3480156101b457600080fd5b506101bd610679565b005b3480156101cb57600080fd5b506101d4610840565b6040516101e19190611101565b60405180910390f35b3480156101f657600080fd5b50610211600480360381019061020c9190610df8565b610864565b60405161021e9190611101565b60405180910390f35b34801561023357600080fd5b5061024e60048036038101906102499190610da6565b6108b2565b60405161025b919061117c565b60405180910390f35b34801561027057600080fd5b506102796109ad565b604051610286919061117c565b60405180910390f35b34801561029b57600080fd5b506102b660048036038101906102b19190610da6565b6109c0565b6040516102c39190611297565b60405180910390f35b3480156102d857600080fd5b506102e16109d8565b005b3480156102ef57600080fd5b506102f8610c4f565b6040516103059190611297565b60405180910390f35b34801561031a57600080fd5b50610323610c55565b005b600060149054906101000a900460ff16610374576040517f08c379a000000000000000000000000000000000000000000000000000000000815260040161036b90611257565b60405180910390fd5b600181101580156103865750600a8111155b6103c5576040517f08c379a00000000000000000000000000000000000000000000000000000000081526004016103bc906111d7565b60405180910390fd5b60003411610408576040517f08c379a00000000000000000000000000000000000000000000000000000000081526004016103ff90611197565b60405180910390fd5b3460016000838152602001908152602001600020600082825461042b91906112c3565b9250508190555060026000828152602001908152602001600020339080600181540180825580915050600190039060005260206000200160009091909190916101000a81548173ffffffffffffffffffffffffffffffffffffffff021916908373ffffffffffffffffffffffffffffffffffffffff16021790555034600360003373ffffffffffffffffffffffffffffffffffffffff1673ffffffffffffffffffffffffffffffffffffffff16815260200190815260200160002060008282546104f591906112c3565b92505081905550346006600082825461050e91906112c3565b925050819055507e1ecf1d0c4d22f324b3ecb9cdf0e5f772bc74ac104e6626f4b3845433d0310533348360405161054793929190611145565b60405180910390a150565b600047905090565b60016020528060005260406000206000915090505481565b60008054906101000a900473ffffffffffffffffffffffffffffffffffffffff1673ffffffffffffffffffffffffffffffffffffffff163373ffffffffffffffffffffffffffffffffffffffff1614610600576040517f08c379a00000000000000000000000000000000000000000000000000000000081526004016105f7906111b7565b60405180910390fd5b60008054906101000a900473ffffffffffffffffffffffffffffffffffffffff1673ffffffffffffffffffffffffffffffffffffffff166108fc6004549081150290604051600060405180830381858888f19350505050158015610668573d6000803e3d6000fd5b506000600481905550565b60055481565b60008054906101000a900473ffffffffffffffffffffffffffffffffffffffff1673ffffffffffffffffffffffffffffffffffffffff163373ffffffffffffffffffffffffffffffffffffffff1614610707576040517f08c379a00000000000000000000000000000000000000000000000000000000081526004016106fe906111b7565b60405180910390fd5b600060149054906101000a900460ff16610756576040517f08c379a000000000000000000000000000000000000000000000000000000000815260040161074d90611257565b60405180910390fd5b60008060146101000a81548160ff0219169083151502179055506001600a424460076000815480929190610789906113ec565b9190505560405160200161079f939291906110c4565b6040516020818303038152906040528051906020012060001c6107c2919061143f565b6107cc91906112c3565b6005819055506064600a6006546107e3919061134a565b6107ed9190611319565b600460008282546107fe91906112c3565b925050819055507f6acd71a91f87517feafe1185ba766bc835fae1a3847b208a56046fbd8032767d6005546040516108369190611297565b60405180910390a1565b60008054906101000a900473ffffffffffffffffffffffffffffffffffffffff1681565b6002602052816000526040600020818154811061088057600080fd5b906000526020600020016000915091509054906101000a900473ffffffffffffffffffffffffffffffffffffffff1681565b600080600090505b600260006005548152602001908152602001600020805490508110156109a2578273ffffffffffffffffffffffffffffffffffffffff16600260006005548152602001908152602001600020828154811061093e577f4e487b7100000000000000000000000000000000000000000000000000000000600052603260045260246000fd5b9060005260206000200160009054906101000a900473ffffffffffffffffffffffffffffffffffffffff1673ffffffffffffffffffffffffffffffffffffffff16141561098f5760019150506109a8565b808061099a906113ec565b9150506108ba565b50600090505b919050565b600060149054906101000a900460ff1681565b60036020528060005260406000206000915090505481565b600060149054906101000a900460ff1615610a28576040517f08c379a0000000000000000000000000000000000000000000000000000000008152600401610a1f906111f7565b60405180910390fd5b6000600360003373ffffffffffffffffffffffffffffffffffffffff1673ffffffffffffffffffffffffffffffffffffffff1681526020019081526020016000205411610aaa576040517f08c379a0000000000000000000000000000000000000000000000000000000008152600401610aa190611277565b60405180910390fd5b610ab3336108b2565b610af2576040517f08c379a0000000000000000000000000000000000000000000000000000000008152600401610ae990611237565b60405180910390fd5b600060016000600554815260200190815260200160002054905060006064605a600654610b1f919061134a565b610b299190611319565b905060008282600360003373ffffffffffffffffffffffffffffffffffffffff1673ffffffffffffffffffffffffffffffffffffffff16815260200190815260200160002054610b79919061134a565b610b839190611319565b90506000600360003373ffffffffffffffffffffffffffffffffffffffff1673ffffffffffffffffffffffffffffffffffffffff168152602001908152602001600020819055503373ffffffffffffffffffffffffffffffffffffffff166108fc829081150290604051600060405180830381858888f19350505050158015610c10573d6000803e3d6000fd5b507f24215bbaf0832fa4d6ffef16dee3971d8b714921fef3ad63f793d578983c6dc23382604051610c4292919061111c565b60405180910390a1505050565b60045481565b60008054906101000a900473ffffffffffffffffffffffffffffffffffffffff1673ffffffffffffffffffffffffffffffffffffffff163373ffffffffffffffffffffffffffffffffffffffff1614610ce3576040517f08c379a0000000000000000000000000000000000000000000000000000000008152600401610cda906111b7565b60405180910390fd5b600060149054906101000a900460ff1615610d33576040517f08c379a0000000000000000000000000000000000000000000000000000000008152600401610d2a90611217565b60405180910390fd5b6001600060146101000a81548160ff0219169083151502179055507f5fa3946aee4c80aba31c32455433a32c5f59b2ce59e03ca9eff6ce10c27e05b160405160405180910390a1565b600081359050610d8b816114ce565b92915050565b600081359050610da0816114e5565b92915050565b600060208284031215610db857600080fd5b6000610dc684828501610d7c565b91505092915050565b600060208284031215610de157600080fd5b6000610def84828501610d91565b91505092915050565b60008060408385031215610e0b57600080fd5b6000610e1985828601610d91565b9250506020610e2a85828601610d91565b9150509250929050565b610e3d816113a4565b82525050565b610e4c816113b6565b82525050565b6000610e5f6012836112b2565b91507f4d7573742062657420736f6d65204554482e00000000000000000000000000006000830152602082019050919050565b6000610e9f6027836112b2565b91507f4f6e6c7920746865206f776e65722063616e20706572666f726d20746869732060008301527f616374696f6e2e000000000000000000000000000000000000000000000000006020830152604082019050919050565b6000610f056020836112b2565b91507f4e756d626572206d757374206265206265747765656e203120616e642031302e6000830152602082019050919050565b6000610f456028836112b2565b91507f42657474696e6720726f756e64206d75737420626520656e64656420746f207760008301527f697468647261772e0000000000000000000000000000000000000000000000006020830152604082019050919050565b6000610fab601d836112b2565b91507f42657474696e6720726f756e6420616c7265616479206163746976652e0000006000830152602082019050919050565b6000610feb6018836112b2565b91507f4e6f7420612077696e6e6572207468697320726f756e642e00000000000000006000830152602082019050919050565b600061102b6018836112b2565b91507f4e6f2062657474696e6720726f756e64206163746976652e00000000000000006000830152602082019050919050565b600061106b600e836112b2565b91507f4e6f2062657420706c616365642e0000000000000000000000000000000000006000830152602082019050919050565b6110a7816113e2565b82525050565b6110be6110b9826113e2565b611435565b82525050565b60006110d082866110ad565b6020820191506110e082856110ad565b6020820191506110f082846110ad565b602082019150819050949350505050565b60006020820190506111166000830184610e34565b92915050565b60006040820190506111316000830185610e34565b61113e602083018461109e565b9392505050565b600060608201905061115a6000830186610e34565b611167602083018561109e565b611174604083018461109e565b949350505050565b60006020820190506111916000830184610e43565b92915050565b600060208201905081810360008301526111b081610e52565b9050919050565b600060208201905081810360008301526111d081610e92565b9050919050565b600060208201905081810360008301526111f081610ef8565b9050919050565b6000602082019050818103600083015261121081610f38565b9050919050565b6000602082019050818103600083015261123081610f9e565b9050919050565b6000602082019050818103600083015261125081610fde565b9050919050565b600060208201905081810360008301526112708161101e565b9050919050565b600060208201905081810360008301526112908161105e565b9050919050565b60006020820190506112ac600083018461109e565b92915050565b600082825260208201905092915050565b60006112ce826113e2565b91506112d9836113e2565b9250827fffffffffffffffffffffffffffffffffffffffffffffffffffffffffffffffff0382111561130e5761130d611470565b5b828201905092915050565b6000611324826113e2565b915061132f836113e2565b92508261133f5761133e61149f565b5b828204905092915050565b6000611355826113e2565b9150611360836113e2565b9250817fffffffffffffffffffffffffffffffffffffffffffffffffffffffffffffffff048311821515161561139957611398611470565b5b828202905092915050565b60006113af826113c2565b9050919050565b60008115159050919050565b600073ffffffffffffffffffffffffffffffffffffffff82169050919050565b6000819050919050565b60006113f7826113e2565b91507fffffffffffffffffffffffffffffffffffffffffffffffffffffffffffffffff82141561142a57611429611470565b5b600182019050919050565b6000819050919050565b600061144a826113e2565b9150611455836113e2565b9250826114655761146461149f565b5b828206905092915050565b7f4e487b7100000000000000000000000000000000000000000000000000000000600052601160045260246000fd5b7f4e487b7100000000000000000000000000000000000000000000000000000000600052601260045260246000fd5b6114d7816113a4565b81146114e257600080fd5b50565b6114ee816113e2565b81146114f957600080fd5b5056fea26469706673582212207431d23982d3fd865e4e04122b655ec73510ac165e51a999676416940c323ce764736f6c63430008000033",
  "linkReferences": {},
  "deployedLinkReferences": {}
}