{
  "_format": "hh-sol-artifact-1",
  "contractName": "Lottery",
  "sourceName": "contracts/Lottery.sol",
  "abi": [
    {
      "inputs": [],
      "stateMutability": "nonpayable",
      "type": "constructor"
    },
    {
      "anonymous": false,
      "inputs": [
        {
          "indexed": false,
          "internalType": "address",
          "name": "bettor",
          "type": "address"
        },
        {
          "indexed": false,
          "internalType": "uint256",
          "name": "amount",
          "type": "uint256"
        },
        {
          "indexed": false,
          "internalType": "uint256",
          "name": "numberSelected",
          "type": "uint256"
        }
      ],
      "name": "BetPlaced",
      "type": "event"
    },
    {
      "anonymous": false,
      "inputs": [
        {
          "indexed": false,
          "internalType": "uint256",
          "name": "winningNumber",
          "type": "uint256"
        }
      ],
      "name": "BettingEnded",
      "type": "event"
    },
    {
      "anonymous": false,
      "inputs": [],
      "name": "BettingStarted",
      "type": "event"
    },
    {
      "anonymous": false,
      "inputs": [
        {
          "indexed": false,
          "internalType": "address",
          "name": "winner",
          "type": "address"
        },
        {
          "indexed": false,
          "internalType": "uint256",
          "name": "amount",
          "type": "uint256"
        }
      ],
      "name": "WinningsWithdrawn",
      "type": "event"
    },
    {
      "inputs": [],
      "name": "bettingActive",
      "outputs": [
        {
          "internalType": "bool",
          "name": "",
          "type": "bool"
        }
      ],
      "stateMutability": "view",
      "type": "function"
    },
    {
      "inputs": [
        {
          "internalType": "address",
          "name": "",
          "type": "address"
        }
      ],
      "name": "bettorToAmount",
      "outputs": [
        {
          "internalType": "uint256",
          "name": "",
          "type": "uint256"
        }
      ],
      "stateMutability": "view",
      "type": "function"
    },
    {
      "inputs": [],
      "name": "endBetting",
      "outputs": [],
      "stateMutability": "nonpayable",
      "type": "function"
    },
    {
      "inputs": [],
      "name": "getBalance",
      "outputs": [
        {
          "internalType": "uint256",
          "name": "",
          "type": "uint256"
        }
      ],
      "stateMutability": "view",
      "type": "function"
    },
    {
      "inputs": [],
      "name": "houseEarnings",
      "outputs": [
        {
          "internalType": "uint256",
          "name": "",
          "type": "uint256"
        }
      ],
      "stateMutability": "view",
      "type": "function"
    },
    {
      "inputs": [
        {
          "internalType": "address",
          "name": "bettor",
          "type": "address"
        }
      ],
      "name": "isWinner",
      "outputs": [
        {
          "internalType": "bool",
          "name": "",
          "type": "bool"
        }
      ],
      "stateMutability": "view",
      "type": "function"
    },
    {
      "inputs": [
        {
          "internalType": "uint256",
          "name": "",
          "type": "uint256"
        },
        {
          "internalType": "uint256",
          "name": "",
          "type": "uint256"
        }
      ],
      "name": "numberToBettors",
      "outputs": [
        {
          "internalType": "address",
          "name": "",
          "type": "address"
        }
      ],
      "stateMutability": "view",
      "type": "function"
    },
    {
      "inputs": [
        {
          "internalType": "uint256",
          "name": "",
          "type": "uint256"
        }
      ],
      "name": "numberToTotalBet",
      "outputs": [
        {
          "internalType": "uint256",
          "name": "",
          "type": "uint256"
        }
      ],
      "stateMutability": "view",
      "type": "function"
    },
    {
      "inputs": [],
      "name": "owner",
      "outputs": [
        {
          "internalType": "address",
          "name": "",
          "type": "address"
        }
      ],
      "stateMutability": "view",
      "type": "function"
    },
    {
      "inputs": [
        {
          "internalType": "uint256",
          "name": "number",
          "type": "uint256"
        }
      ],
      "name": "placeBet",
      "outputs": [],
      "stateMutability": "payable",
      "type": "function"
    },
    {
      "inputs": [],
      "name": "startBetting",
      "outputs": [],
      "stateMutability": "nonpayable",
      "type": "function"
    },
    {
      "inputs": [],
      "name": "winningNumber",
      "outputs": [
        {
          "internalType": "uint256",
          "name": "",
          "type": "uint256"
        }
      ],
      "stateMutability": "view",
      "type": "function"
    },
    {
      "inputs": [],
      "name": "withdrawHouseEarnings",
      "outputs": [],
      "stateMutability": "nonpayable",
      "type": "function"
    },
    {
      "inputs": [],
      "name": "withdrawWinnings",
      "outputs": [],
      "stateMutability": "nonpayable",
      "type": "function"
    }
  ],
  "bytecode": "0x608060405260008060146101000a81548160ff02191690831515021790555034801561002a57600080fd5b50336000806101000a81548173ffffffffffffffffffffffffffffffffffffffff021916908373ffffffffffffffffffffffffffffffffffffffff1602179055506114488061007a6000396000f3fe6080604052600436106100dd5760003560e01c80638df476de1161007f578063a92219c311610059578063a92219c31461028f578063cc42e83a146102cc578063cfe30939146102e3578063d187162f1461030e576100dd565b80638df476de146101ea5780639d9ca28d14610227578063a5ee33cf14610264576100dd565b806341883b78116100bb57806341883b78146101665780634664611e1461017d578063826f57a1146101a85780638da5cb5b146101bf576100dd565b806310fe7c48146100e257806312065fe0146100fe5780631941184214610129575b600080fd5b6100fc60048036038101906100f79190610d74565b610325565b005b34801561010a57600080fd5b50610113610552565b60405161012091906111e8565b60405180910390f35b34801561013557600080fd5b50610150600480360381019061014b9190610d74565b61055a565b60405161015d91906111e8565b60405180910390f35b34801561017257600080fd5b5061017b610572565b005b34801561018957600080fd5b50610192610673565b60405161019f91906111e8565b60405180910390f35b3480156101b457600080fd5b506101bd610679565b005b3480156101cb57600080fd5b506101d46107e5565b6040516101e19190611052565b60405180910390f35b3480156101f657600080fd5b50610211600480360381019061020c9190610d9d565b610809565b60405161021e9190611052565b60405180910390f35b34801561023357600080fd5b5061024e60048036038101906102499190610d4b565b610857565b60405161025b91906110cd565b60405180910390f35b34801561027057600080fd5b50610279610952565b60405161028691906110cd565b60405180910390f35b34801561029b57600080fd5b506102b660048036038101906102b19190610d4b565b610965565b6040516102c391906111e8565b60405180910390f35b3480156102d857600080fd5b506102e161097d565b005b3480156102ef57600080fd5b506102f8610bf4565b60405161030591906111e8565b60405180910390f35b34801561031a57600080fd5b50610323610bfa565b005b600060149054906101000a900460ff16610374576040517f08c379a000000000000000000000000000000000000000000000000000000000815260040161036b906111a8565b60405180910390fd5b600181101580156103865750600a8111155b6103c5576040517f08c379a00000000000000000000000000000000000000000000000000000000081526004016103bc90611128565b60405180910390fd5b60003411610408576040517f08c379a00000000000000000000000000000000000000000000000000000000081526004016103ff906110e8565b60405180910390fd5b3460016000838152602001908152602001600020600082825461042b9190611214565b9250508190555060026000828152602001908152602001600020339080600181540180825580915050600190039060005260206000200160009091909190916101000a81548173ffffffffffffffffffffffffffffffffffffffff021916908373ffffffffffffffffffffffffffffffffffffffff16021790555034600360003373ffffffffffffffffffffffffffffffffffffffff1673ffffffffffffffffffffffffffffffffffffffff16815260200190815260200160002060008282546104f59190611214565b92505081905550346006600082825461050e9190611214565b925050819055507e1ecf1d0c4d22f324b3ecb9cdf0e5f772bc74ac104e6626f4b3845433d0310533348360405161054793929190611096565b60405180910390a150565b600047905090565b60016020528060005260406000206000915090505481565b60008054906101000a900473ffffffffffffffffffffffffffffffffffffffff1673ffffffffffffffffffffffffffffffffffffffff163373ffffffffffffffffffffffffffffffffffffffff1614610600576040517f08c379a00000000000000000000000000000000000000000000000000000000081526004016105f790611108565b60405180910390fd5b60008054906101000a900473ffffffffffffffffffffffffffffffffffffffff1673ffffffffffffffffffffffffffffffffffffffff166108fc6004549081150290604051600060405180830381858888f19350505050158015610668573d6000803e3d6000fd5b506000600481905550565b60055481565b60008054906101000a900473ffffffffffffffffffffffffffffffffffffffff1673ffffffffffffffffffffffffffffffffffffffff163373ffffffffffffffffffffffffffffffffffffffff1614610707576040517f08c379a00000000000000000000000000000000000000000000000000000000081526004016106fe90611108565b60405180910390fd5b600060149054906101000a900460ff16610756576040517f08c379a000000000000000000000000000000000000000000000000000000000815260040161074d906111a8565b60405180910390fd5b60008060146101000a81548160ff021916908315150217905550600580819055506064600a600654610788919061129b565b610792919061126a565b600460008282546107a39190611214565b925050819055507f6acd71a91f87517feafe1185ba766bc835fae1a3847b208a56046fbd8032767d6005546040516107db91906111e8565b60405180910390a1565b60008054906101000a900473ffffffffffffffffffffffffffffffffffffffff1681565b6002602052816000526040600020818154811061082557600080fd5b906000526020600020016000915091509054906101000a900473ffffffffffffffffffffffffffffffffffffffff1681565b600080600090505b60026000600554815260200190815260200160002080549050811015610947578273ffffffffffffffffffffffffffffffffffffffff1660026000600554815260200190815260200160002082815481106108e3577f4e487b7100000000000000000000000000000000000000000000000000000000600052603260045260246000fd5b9060005260206000200160009054906101000a900473ffffffffffffffffffffffffffffffffffffffff1673ffffffffffffffffffffffffffffffffffffffff16141561093457600191505061094d565b808061093f9061133d565b91505061085f565b50600090505b919050565b600060149054906101000a900460ff1681565b60036020528060005260406000206000915090505481565b600060149054906101000a900460ff16156109cd576040517f08c379a00000000000000000000000000000000000000000000000000000000081526004016109c490611148565b60405180910390fd5b6000600360003373ffffffffffffffffffffffffffffffffffffffff1673ffffffffffffffffffffffffffffffffffffffff1681526020019081526020016000205411610a4f576040517f08c379a0000000000000000000000000000000000000000000000000000000008152600401610a46906111c8565b60405180910390fd5b610a5833610857565b610a97576040517f08c379a0000000000000000000000000000000000000000000000000000000008152600401610a8e90611188565b60405180910390fd5b600060016000600554815260200190815260200160002054905060006064605a600654610ac4919061129b565b610ace919061126a565b905060008282600360003373ffffffffffffffffffffffffffffffffffffffff1673ffffffffffffffffffffffffffffffffffffffff16815260200190815260200160002054610b1e919061129b565b610b28919061126a565b90506000600360003373ffffffffffffffffffffffffffffffffffffffff1673ffffffffffffffffffffffffffffffffffffffff168152602001908152602001600020819055503373ffffffffffffffffffffffffffffffffffffffff166108fc829081150290604051600060405180830381858888f19350505050158015610bb5573d6000803e3d6000fd5b507f24215bbaf0832fa4d6ffef16dee3971d8b714921fef3ad63f793d578983c6dc23382604051610be792919061106d565b60405180910390a1505050565b60045481565b60008054906101000a900473ffffffffffffffffffffffffffffffffffffffff1673ffffffffffffffffffffffffffffffffffffffff163373ffffffffffffffffffffffffffffffffffffffff1614610c88576040517f08c379a0000000000000000000000000000000000000000000000000000000008152600401610c7f90611108565b60405180910390fd5b600060149054906101000a900460ff1615610cd8576040517f08c379a0000000000000000000000000000000000000000000000000000000008152600401610ccf90611168565b60405180910390fd5b6001600060146101000a81548160ff0219169083151502179055507f5fa3946aee4c80aba31c32455433a32c5f59b2ce59e03ca9eff6ce10c27e05b160405160405180910390a1565b600081359050610d30816113e4565b92915050565b600081359050610d45816113fb565b92915050565b600060208284031215610d5d57600080fd5b6000610d6b84828501610d21565b91505092915050565b600060208284031215610d8657600080fd5b6000610d9484828501610d36565b91505092915050565b60008060408385031215610db057600080fd5b6000610dbe85828601610d36565b9250506020610dcf85828601610d36565b9150509250929050565b610de2816112f5565b82525050565b610df181611307565b82525050565b6000610e04601283611203565b91507f4d7573742062657420736f6d65204554482e00000000000000000000000000006000830152602082019050919050565b6000610e44602783611203565b91507f4f6e6c7920746865206f776e65722063616e20706572666f726d20746869732060008301527f616374696f6e2e000000000000000000000000000000000000000000000000006020830152604082019050919050565b6000610eaa602083611203565b91507f4e756d626572206d757374206265206265747765656e203120616e642031302e6000830152602082019050919050565b6000610eea602883611203565b91507f42657474696e6720726f756e64206d75737420626520656e64656420746f207760008301527f697468647261772e0000000000000000000000000000000000000000000000006020830152604082019050919050565b6000610f50601d83611203565b91507f42657474696e6720726f756e6420616c7265616479206163746976652e0000006000830152602082019050919050565b6000610f90601883611203565b91507f4e6f7420612077696e6e6572207468697320726f756e642e00000000000000006000830152602082019050919050565b6000610fd0601883611203565b91507f4e6f2062657474696e6720726f756e64206163746976652e00000000000000006000830152602082019050919050565b6000611010600e83611203565b91507f4e6f2062657420706c616365642e0000000000000000000000000000000000006000830152602082019050919050565b61104c81611333565b82525050565b60006020820190506110676000830184610dd9565b92915050565b60006040820190506110826000830185610dd9565b61108f6020830184611043565b9392505050565b60006060820190506110ab6000830186610dd9565b6110b86020830185611043565b6110c56040830184611043565b949350505050565b60006020820190506110e26000830184610de8565b92915050565b6000602082019050818103600083015261110181610df7565b9050919050565b6000602082019050818103600083015261112181610e37565b9050919050565b6000602082019050818103600083015261114181610e9d565b9050919050565b6000602082019050818103600083015261116181610edd565b9050919050565b6000602082019050818103600083015261118181610f43565b9050919050565b600060208201905081810360008301526111a181610f83565b9050919050565b600060208201905081810360008301526111c181610fc3565b9050919050565b600060208201905081810360008301526111e181611003565b9050919050565b60006020820190506111fd6000830184611043565b92915050565b600082825260208201905092915050565b600061121f82611333565b915061122a83611333565b9250827fffffffffffffffffffffffffffffffffffffffffffffffffffffffffffffffff0382111561125f5761125e611386565b5b828201905092915050565b600061127582611333565b915061128083611333565b9250826112905761128f6113b5565b5b828204905092915050565b60006112a682611333565b91506112b183611333565b9250817fffffffffffffffffffffffffffffffffffffffffffffffffffffffffffffffff04831182151516156112ea576112e9611386565b5b828202905092915050565b600061130082611313565b9050919050565b60008115159050919050565b600073ffffffffffffffffffffffffffffffffffffffff82169050919050565b6000819050919050565b600061134882611333565b91507fffffffffffffffffffffffffffffffffffffffffffffffffffffffffffffffff82141561137b5761137a611386565b5b600182019050919050565b7f4e487b7100000000000000000000000000000000000000000000000000000000600052601160045260246000fd5b7f4e487b7100000000000000000000000000000000000000000000000000000000600052601260045260246000fd5b6113ed816112f5565b81146113f857600080fd5b50565b61140481611333565b811461140f57600080fd5b5056fea26469706673582212207d018ff6e77a594351c6a6b83b22142550dc190cca1901e0faabfe865791248164736f6c63430008000033",
  "linkReferences": {},
  "deployedLinkReferences": {}
}